{
    "_format": "hh-sol-artifact-1",
    "contractName": "MccmNFT",
    "sourceName": "contracts/MccmNFT.sol",
    "abi": [
        {
            "inputs": [],
            "stateMutability": "nonpayable",
            "type": "constructor"
        },
        {
            "anonymous": false,
            "inputs": [
                {
                    "indexed": true,
                    "internalType": "address",
                    "name": "owner",
                    "type": "address"
                },
                {
                    "indexed": true,
                    "internalType": "address",
                    "name": "approved",
                    "type": "address"
                },
                {
                    "indexed": true,
                    "internalType": "uint256",
                    "name": "tokenId",
                    "type": "uint256"
                }
            ],
            "name": "Approval",
            "type": "event"
        },
        {
            "anonymous": false,
            "inputs": [
                {
                    "indexed": true,
                    "internalType": "address",
                    "name": "owner",
                    "type": "address"
                },
                {
                    "indexed": true,
                    "internalType": "address",
                    "name": "operator",
                    "type": "address"
                },
                {
                    "indexed": false,
                    "internalType": "bool",
                    "name": "approved",
                    "type": "bool"
                }
            ],
            "name": "ApprovalForAll",
            "type": "event"
        },
        {
            "anonymous": false,
            "inputs": [
                {
                    "indexed": true,
                    "internalType": "address",
                    "name": "previousOwner",
                    "type": "address"
                },
                {
                    "indexed": true,
                    "internalType": "address",
                    "name": "newOwner",
                    "type": "address"
                }
            ],
            "name": "OwnershipTransferred",
            "type": "event"
        },
        {
            "anonymous": false,
            "inputs": [
                {
                    "indexed": true,
                    "internalType": "address",
                    "name": "from",
                    "type": "address"
                },
                {
                    "indexed": true,
                    "internalType": "address",
                    "name": "to",
                    "type": "address"
                },
                {
                    "indexed": true,
                    "internalType": "uint256",
                    "name": "tokenId",
                    "type": "uint256"
                }
            ],
            "name": "Transfer",
            "type": "event"
        },
        {
            "inputs": [],
            "name": "ContractBalance",
            "outputs": [
                {
                    "internalType": "uint256",
                    "name": "",
                    "type": "uint256"
                }
            ],
            "stateMutability": "view",
            "type": "function"
        },
        {
            "inputs": [],
            "name": "MAX_SUPPLY",
            "outputs": [
                {
                    "internalType": "uint256",
                    "name": "",
                    "type": "uint256"
                }
            ],
            "stateMutability": "view",
            "type": "function"
        },
        {
            "inputs": [],
            "name": "_isSaleActive",
            "outputs": [
                {
                    "internalType": "bool",
                    "name": "",
                    "type": "bool"
                }
            ],
            "stateMutability": "view",
            "type": "function"
        },
        {
            "inputs": [],
            "name": "_revealed",
            "outputs": [
                {
                    "internalType": "bool",
                    "name": "",
                    "type": "bool"
                }
            ],
            "stateMutability": "view",
            "type": "function"
        },
        {
            "inputs": [
                {
                    "internalType": "address",
                    "name": "",
                    "type": "address"
                }
            ],
            "name": "addressMintMccmBalance",
            "outputs": [
                {
                    "internalType": "uint256",
                    "name": "",
                    "type": "uint256"
                }
            ],
            "stateMutability": "view",
            "type": "function"
        },
        {
            "inputs": [
                {
                    "internalType": "address",
                    "name": "to",
                    "type": "address"
                },
                {
                    "internalType": "uint256",
                    "name": "tokenId",
                    "type": "uint256"
                }
            ],
            "name": "approve",
            "outputs": [],
            "stateMutability": "nonpayable",
            "type": "function"
        },
        {
            "inputs": [
                {
                    "internalType": "address",
                    "name": "owner",
                    "type": "address"
                }
            ],
            "name": "balanceOf",
            "outputs": [
                {
                    "internalType": "uint256",
                    "name": "",
                    "type": "uint256"
                }
            ],
            "stateMutability": "view",
            "type": "function"
        },
        {
            "inputs": [],
            "name": "baseExtension",
            "outputs": [
                {
                    "internalType": "string",
                    "name": "",
                    "type": "string"
                }
            ],
            "stateMutability": "view",
            "type": "function"
        },
        {
            "inputs": [],
            "name": "flipReveal",
            "outputs": [],
            "stateMutability": "nonpayable",
            "type": "function"
        },
        {
            "inputs": [],
            "name": "flipSaleActive",
            "outputs": [],
            "stateMutability": "nonpayable",
            "type": "function"
        },
        {
            "inputs": [
                {
                    "internalType": "uint256",
                    "name": "tokenId",
                    "type": "uint256"
                }
            ],
            "name": "getApproved",
            "outputs": [
                {
                    "internalType": "address",
                    "name": "",
                    "type": "address"
                }
            ],
            "stateMutability": "view",
            "type": "function"
        },
        {
            "inputs": [
                {
                    "internalType": "address",
                    "name": "owner",
                    "type": "address"
                },
                {
                    "internalType": "address",
                    "name": "operator",
                    "type": "address"
                }
            ],
            "name": "isApprovedForAll",
            "outputs": [
                {
                    "internalType": "bool",
                    "name": "",
                    "type": "bool"
                }
            ],
            "stateMutability": "view",
            "type": "function"
        },
        {
            "inputs": [],
            "name": "maxMint",
            "outputs": [
                {
                    "internalType": "uint256",
                    "name": "",
                    "type": "uint256"
                }
            ],
            "stateMutability": "view",
            "type": "function"
        },
        {
            "inputs": [
                {
                    "internalType": "uint256",
                    "name": "tokenQuantity",
                    "type": "uint256"
                }
            ],
            "name": "mintMccmMeta",
            "outputs": [],
            "stateMutability": "payable",
            "type": "function"
        },
        {
            "inputs": [],
            "name": "mintPrice",
            "outputs": [
                {
                    "internalType": "uint256",
                    "name": "",
                    "type": "uint256"
                }
            ],
            "stateMutability": "view",
            "type": "function"
        },
        {
            "inputs": [],
            "name": "name",
            "outputs": [
                {
                    "internalType": "string",
                    "name": "",
                    "type": "string"
                }
            ],
            "stateMutability": "view",
            "type": "function"
        },
        {
            "inputs": [],
            "name": "notRevealedUri",
            "outputs": [
                {
                    "internalType": "string",
                    "name": "",
                    "type": "string"
                }
            ],
            "stateMutability": "view",
            "type": "function"
        },
        {
            "inputs": [],
            "name": "owner",
            "outputs": [
                {
                    "internalType": "address",
                    "name": "",
                    "type": "address"
                }
            ],
            "stateMutability": "view",
            "type": "function"
        },
        {
            "inputs": [
                {
                    "internalType": "uint256",
                    "name": "tokenId",
                    "type": "uint256"
                }
            ],
            "name": "ownerOf",
            "outputs": [
                {
                    "internalType": "address",
                    "name": "",
                    "type": "address"
                }
            ],
            "stateMutability": "view",
            "type": "function"
        },
        {
            "inputs": [],
            "name": "renounceOwnership",
            "outputs": [],
            "stateMutability": "nonpayable",
            "type": "function"
        },
        {
            "inputs": [
                {
                    "internalType": "address",
                    "name": "from",
                    "type": "address"
                },
                {
                    "internalType": "address",
                    "name": "to",
                    "type": "address"
                },
                {
                    "internalType": "uint256",
                    "name": "tokenId",
                    "type": "uint256"
                }
            ],
            "name": "safeTransferFrom",
            "outputs": [],
            "stateMutability": "nonpayable",
            "type": "function"
        },
        {
            "inputs": [
                {
                    "internalType": "address",
                    "name": "from",
                    "type": "address"
                },
                {
                    "internalType": "address",
                    "name": "to",
                    "type": "address"
                },
                {
                    "internalType": "uint256",
                    "name": "tokenId",
                    "type": "uint256"
                },
                {
                    "internalType": "bytes",
                    "name": "data",
                    "type": "bytes"
                }
            ],
            "name": "safeTransferFrom",
            "outputs": [],
            "stateMutability": "nonpayable",
            "type": "function"
        },
        {
            "inputs": [
                {
                    "internalType": "address",
                    "name": "operator",
                    "type": "address"
                },
                {
                    "internalType": "bool",
                    "name": "approved",
                    "type": "bool"
                }
            ],
            "name": "setApprovalForAll",
            "outputs": [],
            "stateMutability": "nonpayable",
            "type": "function"
        },
        {
            "inputs": [
                {
                    "internalType": "string",
                    "name": "_newBaseExtension",
                    "type": "string"
                }
            ],
            "name": "setBaseExtension",
            "outputs": [],
            "stateMutability": "nonpayable",
            "type": "function"
        },
        {
            "inputs": [
                {
                    "internalType": "string",
                    "name": "_newBaseURI",
                    "type": "string"
                }
            ],
            "name": "setBaseURI",
            "outputs": [],
            "stateMutability": "nonpayable",
            "type": "function"
        },
        {
            "inputs": [
                {
                    "internalType": "uint256",
                    "name": "_maxMint",
                    "type": "uint256"
                }
            ],
            "name": "setMaxMint",
            "outputs": [],
            "stateMutability": "nonpayable",
            "type": "function"
        },
        {
            "inputs": [
                {
                    "internalType": "uint256",
                    "name": "_mintPrice",
                    "type": "uint256"
                }
            ],
            "name": "setMintPrice",
            "outputs": [],
            "stateMutability": "nonpayable",
            "type": "function"
        },
        {
            "inputs": [
                {
                    "internalType": "string",
                    "name": "_notRevealedURI",
                    "type": "string"
                }
            ],
            "name": "setNotRevealedURI",
            "outputs": [],
            "stateMutability": "nonpayable",
            "type": "function"
        },
        {
            "inputs": [
                {
                    "internalType": "bytes4",
                    "name": "interfaceId",
                    "type": "bytes4"
                }
            ],
            "name": "supportsInterface",
            "outputs": [
                {
                    "internalType": "bool",
                    "name": "",
                    "type": "bool"
                }
            ],
            "stateMutability": "view",
            "type": "function"
        },
        {
            "inputs": [],
            "name": "symbol",
            "outputs": [
                {
                    "internalType": "string",
                    "name": "",
                    "type": "string"
                }
            ],
            "stateMutability": "view",
            "type": "function"
        },
        {
            "inputs": [
                {
                    "internalType": "uint256",
                    "name": "index",
                    "type": "uint256"
                }
            ],
            "name": "tokenByIndex",
            "outputs": [
                {
                    "internalType": "uint256",
                    "name": "",
                    "type": "uint256"
                }
            ],
            "stateMutability": "view",
            "type": "function"
        },
        {
            "inputs": [
                {
                    "internalType": "address",
                    "name": "owner",
                    "type": "address"
                },
                {
                    "internalType": "uint256",
                    "name": "index",
                    "type": "uint256"
                }
            ],
            "name": "tokenOfOwnerByIndex",
            "outputs": [
                {
                    "internalType": "uint256",
                    "name": "",
                    "type": "uint256"
                }
            ],
            "stateMutability": "view",
            "type": "function"
        },
        {
            "inputs": [
                {
                    "internalType": "uint256",
                    "name": "tokenId",
                    "type": "uint256"
                }
            ],
            "name": "tokenURI",
            "outputs": [
                {
                    "internalType": "string",
                    "name": "",
                    "type": "string"
                }
            ],
            "stateMutability": "view",
            "type": "function"
        },
        {
            "inputs": [],
            "name": "totalSupply",
            "outputs": [
                {
                    "internalType": "uint256",
                    "name": "",
                    "type": "uint256"
                }
            ],
            "stateMutability": "view",
            "type": "function"
        },
        {
            "inputs": [
                {
                    "internalType": "address",
                    "name": "from",
                    "type": "address"
                },
                {
                    "internalType": "address",
                    "name": "to",
                    "type": "address"
                },
                {
                    "internalType": "uint256",
                    "name": "tokenId",
                    "type": "uint256"
                }
            ],
            "name": "transferFrom",
            "outputs": [],
            "stateMutability": "nonpayable",
            "type": "function"
        },
        {
            "inputs": [
                {
                    "internalType": "address",
                    "name": "newOwner",
                    "type": "address"
                }
            ],
            "name": "transferOwnership",
            "outputs": [],
            "stateMutability": "nonpayable",
            "type": "function"
        },
        {
            "inputs": [
                {
                    "internalType": "address",
                    "name": "to",
                    "type": "address"
                }
            ],
            "name": "withdraw",
            "outputs": [],
            "stateMutability": "nonpayable",
            "type": "function"
        }
    ],
    "bytecode": "0x60806040526000600c60006101000a81548160ff0219169083151502179055506000600c60016101000a81548160ff021916908315150217905550660aa87bee538000600d55610190600e556040518060400160405280600581526020017f2e6a736f6e000000000000000000000000000000000000000000000000000000815250601190805190602001906200009892919062000243565b50348015620000a657600080fd5b506040518060400160405280600981526020017f4d6f6f6d20636c756200000000000000000000000000000000000000000000008152506040518060400160405280600281526020017f4d4300000000000000000000000000000000000000000000000000000000000081525081600090805190602001906200012b92919062000243565b5080600190805190602001906200014492919062000243565b505050620001676200015b6200017560201b60201c565b6200017d60201b60201c565b6001600b8190555062000357565b600033905090565b6000600a60009054906101000a900473ffffffffffffffffffffffffffffffffffffffff16905081600a60006101000a81548173ffffffffffffffffffffffffffffffffffffffff021916908373ffffffffffffffffffffffffffffffffffffffff1602179055508173ffffffffffffffffffffffffffffffffffffffff168173ffffffffffffffffffffffffffffffffffffffff167f8be0079c531659141344cd1fd0a4f28419497f9722a3daafe3b4186f6b6457e060405160405180910390a35050565b828054620002519062000322565b90600052602060002090601f016020900481019282620002755760008555620002c1565b82601f106200029057805160ff1916838001178555620002c1565b82800160010185558215620002c1579182015b82811115620002c0578251825591602001919060010190620002a3565b5b509050620002d09190620002d4565b5090565b5b80821115620002ef576000816000905550600101620002d5565b5090565b7f4e487b7100000000000000000000000000000000000000000000000000000000600052602260045260246000fd5b600060028204905060018216806200033b57607f821691505b602082108103620003515762000350620002f3565b5b50919050565b61427b80620003676000396000f3fe60806040526004361061021a5760003560e01c80636817c76c11610123578063b88d4fde116100ab578063de8b51e11161006f578063de8b51e1146107c6578063e985e9c5146107dd578063f2c4ce1e1461081a578063f2fde38b14610843578063f4a0a5281461086c5761021a565b8063b88d4fde146106f0578063c668286214610719578063c87b56dd14610744578063d9886d3c14610781578063da3ef23f1461079d5761021a565b8063715018a6116100f2578063715018a61461062f5780637501f741146106465780638da5cb5b1461067157806395d89b411461069c578063a22cb465146106c75761021a565b80636817c76c146105715780636ebeac851461059c5780637080d6fc146105c757806370a08231146105f25761021a565b80633a915d20116101a65780634f6ccce7116101755780634f6ccce71461047c57806351cff8d9146104b9578063547520fe146104e257806355f804b31461050b5780636352211e146105345761021a565b80633a915d20146103d45780633b668059146104115780633b84d9c61461043c57806342842e0e146104535761021a565b8063095ea7b3116101ed578063095ea7b3146102ef57806318160ddd1461031857806323b872dd146103435780632f745c591461036c57806332cb6b0c146103a95761021a565b806301ffc9a71461021f57806306fdde031461025c578063081812fc14610287578063081c8c44146102c4575b600080fd5b34801561022b57600080fd5b5061024660048036038101906102419190612c42565b610895565b6040516102539190612c8a565b60405180910390f35b34801561026857600080fd5b5061027161090f565b60405161027e9190612d3e565b60405180910390f35b34801561029357600080fd5b506102ae60048036038101906102a99190612d96565b6109a1565b6040516102bb9190612e04565b60405180910390f35b3480156102d057600080fd5b506102d96109e7565b6040516102e69190612d3e565b60405180910390f35b3480156102fb57600080fd5b5061031660048036038101906103119190612e4b565b610a75565b005b34801561032457600080fd5b5061032d610b8c565b60405161033a9190612e9a565b60405180910390f35b34801561034f57600080fd5b5061036a60048036038101906103659190612eb5565b610b99565b005b34801561037857600080fd5b50610393600480360381019061038e9190612e4b565b610bf9565b6040516103a09190612e9a565b60405180910390f35b3480156103b557600080fd5b506103be610c9e565b6040516103cb9190612e9a565b60405180910390f35b3480156103e057600080fd5b506103fb60048036038101906103f69190612f08565b610ca4565b6040516104089190612e9a565b60405180910390f35b34801561041d57600080fd5b50610426610cbc565b6040516104339190612e9a565b60405180910390f35b34801561044857600080fd5b50610451610cc9565b005b34801561045f57600080fd5b5061047a60048036038101906104759190612eb5565b610cfd565b005b34801561048857600080fd5b506104a3600480360381019061049e9190612d96565b610d1d565b6040516104b09190612e9a565b60405180910390f35b3480156104c557600080fd5b506104e060048036038101906104db9190612f08565b610d8e565b005b3480156104ee57600080fd5b5061050960048036038101906105049190612d96565b610e3b565b005b34801561051757600080fd5b50610532600480360381019061052d919061306a565b610e4d565b005b34801561054057600080fd5b5061055b60048036038101906105569190612d96565b610e6f565b6040516105689190612e04565b60405180910390f35b34801561057d57600080fd5b50610586610f20565b6040516105939190612e9a565b60405180910390f35b3480156105a857600080fd5b506105b1610f26565b6040516105be9190612c8a565b60405180910390f35b3480156105d357600080fd5b506105dc610f39565b6040516105e99190612c8a565b60405180910390f35b3480156105fe57600080fd5b5061061960048036038101906106149190612f08565b610f4c565b6040516106269190612e9a565b60405180910390f35b34801561063b57600080fd5b50610644611003565b005b34801561065257600080fd5b5061065b611017565b6040516106689190612e9a565b60405180910390f35b34801561067d57600080fd5b5061068661101d565b6040516106939190612e04565b60405180910390f35b3480156106a857600080fd5b506106b1611047565b6040516106be9190612d3e565b60405180910390f35b3480156106d357600080fd5b506106ee60048036038101906106e991906130df565b6110d9565b005b3480156106fc57600080fd5b50610717600480360381019061071291906131c0565b6110ef565b005b34801561072557600080fd5b5061072e611151565b60405161073b9190612d3e565b60405180910390f35b34801561075057600080fd5b5061076b60048036038101906107669190612d96565b6111df565b6040516107789190612d3e565b60405180910390f35b61079b60048036038101906107969190612d96565b611401565b005b3480156107a957600080fd5b506107c460048036038101906107bf919061306a565b611617565b005b3480156107d257600080fd5b506107db611639565b005b3480156107e957600080fd5b5061080460048036038101906107ff9190613243565b61166d565b6040516108119190612c8a565b60405180910390f35b34801561082657600080fd5b50610841600480360381019061083c919061306a565b611701565b005b34801561084f57600080fd5b5061086a60048036038101906108659190612f08565b611723565b005b34801561087857600080fd5b50610893600480360381019061088e9190612d96565b6117a6565b005b60007f780e9d63000000000000000000000000000000000000000000000000000000007bffffffffffffffffffffffffffffffffffffffffffffffffffffffff1916827bffffffffffffffffffffffffffffffffffffffffffffffffffffffff191614806109085750610907826117b8565b5b9050919050565b60606000805461091e906132b2565b80601f016020809104026020016040519081016040528092919081815260200182805461094a906132b2565b80156109975780601f1061096c57610100808354040283529160200191610997565b820191906000526020600020905b81548152906001019060200180831161097a57829003601f168201915b5050505050905090565b60006109ac8261189a565b6004600083815260200190815260200160002060009054906101000a900473ffffffffffffffffffffffffffffffffffffffff169050919050565b601080546109f4906132b2565b80601f0160208091040260200160405190810160405280929190818152602001828054610a20906132b2565b8015610a6d5780601f10610a4257610100808354040283529160200191610a6d565b820191906000526020600020905b815481529060010190602001808311610a5057829003601f168201915b505050505081565b6000610a8082610e6f565b90508073ffffffffffffffffffffffffffffffffffffffff168373ffffffffffffffffffffffffffffffffffffffff1603610af0576040517f08c379a0000000000000000000000000000000000000000000000000000000008152600401610ae790613355565b60405180910390fd5b8073ffffffffffffffffffffffffffffffffffffffff16610b0f6118e5565b73ffffffffffffffffffffffffffffffffffffffff161480610b3e5750610b3d81610b386118e5565b61166d565b5b610b7d576040517f08c379a0000000000000000000000000000000000000000000000000000000008152600401610b74906133e7565b60405180910390fd5b610b8783836118ed565b505050565b6000600880549050905090565b610baa610ba46118e5565b826119a6565b610be9576040517f08c379a0000000000000000000000000000000000000000000000000000000008152600401610be090613479565b60405180910390fd5b610bf4838383611a3b565b505050565b6000610c0483610f4c565b8210610c45576040517f08c379a0000000000000000000000000000000000000000000000000000000008152600401610c3c9061350b565b60405180910390fd5b600660008473ffffffffffffffffffffffffffffffffffffffff1673ffffffffffffffffffffffffffffffffffffffff168152602001908152602001600020600083815260200190815260200160002054905092915050565b611a0a81565b60136020528060005260406000206000915090505481565b6000804790508091505090565b610cd1611ca1565b600c60019054906101000a900460ff1615600c60016101000a81548160ff021916908315150217905550565b610d18838383604051806020016040528060008152506110ef565b505050565b6000610d27610b8c565b8210610d68576040517f08c379a0000000000000000000000000000000000000000000000000000000008152600401610d5f9061359d565b60405180910390fd5b60088281548110610d7c57610d7b6135bd565b5b90600052602060002001549050919050565b610d96611ca1565b6002600b5403610ddb576040517f08c379a0000000000000000000000000000000000000000000000000000000008152600401610dd290613638565b60405180910390fd5b6002600b8190555060004790508173ffffffffffffffffffffffffffffffffffffffff166108fc829081150290604051600060405180830381858888f19350505050158015610e2e573d6000803e3d6000fd5b50506001600b8190555050565b610e43611ca1565b80600e8190555050565b610e55611ca1565b80600f9080519060200190610e6b929190612b33565b5050565b6000806002600084815260200190815260200160002060009054906101000a900473ffffffffffffffffffffffffffffffffffffffff169050600073ffffffffffffffffffffffffffffffffffffffff168173ffffffffffffffffffffffffffffffffffffffff1603610f17576040517f08c379a0000000000000000000000000000000000000000000000000000000008152600401610f0e906136a4565b60405180910390fd5b80915050919050565b600d5481565b600c60019054906101000a900460ff1681565b600c60009054906101000a900460ff1681565b60008073ffffffffffffffffffffffffffffffffffffffff168273ffffffffffffffffffffffffffffffffffffffff1603610fbc576040517f08c379a0000000000000000000000000000000000000000000000000000000008152600401610fb390613736565b60405180910390fd5b600360008373ffffffffffffffffffffffffffffffffffffffff1673ffffffffffffffffffffffffffffffffffffffff168152602001908152602001600020549050919050565b61100b611ca1565b6110156000611d1f565b565b600e5481565b6000600a60009054906101000a900473ffffffffffffffffffffffffffffffffffffffff16905090565b606060018054611056906132b2565b80601f0160208091040260200160405190810160405280929190818152602001828054611082906132b2565b80156110cf5780601f106110a4576101008083540402835291602001916110cf565b820191906000526020600020905b8154815290600101906020018083116110b257829003601f168201915b5050505050905090565b6110eb6110e46118e5565b8383611de5565b5050565b6111006110fa6118e5565b836119a6565b61113f576040517f08c379a000000000000000000000000000000000000000000000000000000000815260040161113690613479565b60405180910390fd5b61114b84848484611f51565b50505050565b6011805461115e906132b2565b80601f016020809104026020016040519081016040528092919081815260200182805461118a906132b2565b80156111d75780601f106111ac576101008083540402835291602001916111d7565b820191906000526020600020905b8154815290600101906020018083116111ba57829003601f168201915b505050505081565b60606111ea82611fad565b611229576040517f08c379a0000000000000000000000000000000000000000000000000000000008152600401611220906137c8565b60405180910390fd5b60001515600c60019054906101000a900460ff161515036112d65760108054611251906132b2565b80601f016020809104026020016040519081016040528092919081815260200182805461127d906132b2565b80156112ca5780601f1061129f576101008083540402835291602001916112ca565b820191906000526020600020905b8154815290600101906020018083116112ad57829003601f168201915b505050505090506113fc565b60006012600084815260200190815260200160002080546112f6906132b2565b80601f0160208091040260200160405190810160405280929190818152602001828054611322906132b2565b801561136f5780601f106113445761010080835404028352916020019161136f565b820191906000526020600020905b81548152906001019060200180831161135257829003601f168201915b505050505090506000611380612019565b905060008151036113955781925050506113fc565b6000825111156113ca5780826040516020016113b2929190613824565b604051602081830303815290604052925050506113fc565b806113d4856120ab565b60116040516020016113e8939291906138dc565b604051602081830303815290604052925050505b919050565b6002600b5403611446576040517f08c379a000000000000000000000000000000000000000000000000000000000815260040161143d90613638565b60405180910390fd5b6002600b819055503373ffffffffffffffffffffffffffffffffffffffff163273ffffffffffffffffffffffffffffffffffffffff16146114bc576040517f08c379a00000000000000000000000000000000000000000000000000000000081526004016114b390613959565b60405180910390fd5b611a0a816114c8610b8c565b6114d291906139a8565b1115611513576040517f08c379a000000000000000000000000000000000000000000000000000000000815260040161150a90613a4a565b60405180910390fd5b600c60009054906101000a900460ff16611562576040517f08c379a000000000000000000000000000000000000000000000000000000000815260040161155990613ab6565b60405180910390fd5b6000811180156115745750600e548111155b6115b3576040517f08c379a00000000000000000000000000000000000000000000000000000000081526004016115aa90613b48565b60405180910390fd5b3481600d546115c29190613b68565b1115611603576040517f08c379a00000000000000000000000000000000000000000000000000000000081526004016115fa90613c0e565b60405180910390fd5b61160c8161220b565b6001600b8190555050565b61161f611ca1565b8060119080519060200190611635929190612b33565b5050565b611641611ca1565b600c60009054906101000a900460ff1615600c60006101000a81548160ff021916908315150217905550565b6000600560008473ffffffffffffffffffffffffffffffffffffffff1673ffffffffffffffffffffffffffffffffffffffff16815260200190815260200160002060008373ffffffffffffffffffffffffffffffffffffffff1673ffffffffffffffffffffffffffffffffffffffff16815260200190815260200160002060009054906101000a900460ff16905092915050565b611709611ca1565b806010908051906020019061171f929190612b33565b5050565b61172b611ca1565b600073ffffffffffffffffffffffffffffffffffffffff168173ffffffffffffffffffffffffffffffffffffffff160361179a576040517f08c379a000000000000000000000000000000000000000000000000000000000815260040161179190613ca0565b60405180910390fd5b6117a381611d1f565b50565b6117ae611ca1565b80600d8190555050565b60007f80ac58cd000000000000000000000000000000000000000000000000000000007bffffffffffffffffffffffffffffffffffffffffffffffffffffffff1916827bffffffffffffffffffffffffffffffffffffffffffffffffffffffff1916148061188357507f5b5e139f000000000000000000000000000000000000000000000000000000007bffffffffffffffffffffffffffffffffffffffffffffffffffffffff1916827bffffffffffffffffffffffffffffffffffffffffffffffffffffffff1916145b806118935750611892826122ab565b5b9050919050565b6118a381611fad565b6118e2576040517f08c379a00000000000000000000000000000000000000000000000000000000081526004016118d9906136a4565b60405180910390fd5b50565b600033905090565b816004600083815260200190815260200160002060006101000a81548173ffffffffffffffffffffffffffffffffffffffff021916908373ffffffffffffffffffffffffffffffffffffffff160217905550808273ffffffffffffffffffffffffffffffffffffffff1661196083610e6f565b73ffffffffffffffffffffffffffffffffffffffff167f8c5be1e5ebec7d5bd14f71427d1e84f3dd0314c0f7b2291e5b200ac8c7c3b92560405160405180910390a45050565b6000806119b283610e6f565b90508073ffffffffffffffffffffffffffffffffffffffff168473ffffffffffffffffffffffffffffffffffffffff1614806119f457506119f3818561166d565b5b80611a3257508373ffffffffffffffffffffffffffffffffffffffff16611a1a846109a1565b73ffffffffffffffffffffffffffffffffffffffff16145b91505092915050565b8273ffffffffffffffffffffffffffffffffffffffff16611a5b82610e6f565b73ffffffffffffffffffffffffffffffffffffffff1614611ab1576040517f08c379a0000000000000000000000000000000000000000000000000000000008152600401611aa890613d32565b60405180910390fd5b600073ffffffffffffffffffffffffffffffffffffffff168273ffffffffffffffffffffffffffffffffffffffff1603611b20576040517f08c379a0000000000000000000000000000000000000000000000000000000008152600401611b1790613dc4565b60405180910390fd5b611b2b838383612315565b611b366000826118ed565b6001600360008573ffffffffffffffffffffffffffffffffffffffff1673ffffffffffffffffffffffffffffffffffffffff1681526020019081526020016000206000828254611b869190613de4565b925050819055506001600360008473ffffffffffffffffffffffffffffffffffffffff1673ffffffffffffffffffffffffffffffffffffffff1681526020019081526020016000206000828254611bdd91906139a8565b92505081905550816002600083815260200190815260200160002060006101000a81548173ffffffffffffffffffffffffffffffffffffffff021916908373ffffffffffffffffffffffffffffffffffffffff160217905550808273ffffffffffffffffffffffffffffffffffffffff168473ffffffffffffffffffffffffffffffffffffffff167fddf252ad1be2c89b69c2b068fc378daa952ba7f163c4a11628f55a4df523b3ef60405160405180910390a4611c9c838383612427565b505050565b611ca96118e5565b73ffffffffffffffffffffffffffffffffffffffff16611cc761101d565b73ffffffffffffffffffffffffffffffffffffffff1614611d1d576040517f08c379a0000000000000000000000000000000000000000000000000000000008152600401611d1490613e64565b60405180910390fd5b565b6000600a60009054906101000a900473ffffffffffffffffffffffffffffffffffffffff16905081600a60006101000a81548173ffffffffffffffffffffffffffffffffffffffff021916908373ffffffffffffffffffffffffffffffffffffffff1602179055508173ffffffffffffffffffffffffffffffffffffffff168173ffffffffffffffffffffffffffffffffffffffff167f8be0079c531659141344cd1fd0a4f28419497f9722a3daafe3b4186f6b6457e060405160405180910390a35050565b8173ffffffffffffffffffffffffffffffffffffffff168373ffffffffffffffffffffffffffffffffffffffff1603611e53576040517f08c379a0000000000000000000000000000000000000000000000000000000008152600401611e4a90613ed0565b60405180910390fd5b80600560008573ffffffffffffffffffffffffffffffffffffffff1673ffffffffffffffffffffffffffffffffffffffff16815260200190815260200160002060008473ffffffffffffffffffffffffffffffffffffffff1673ffffffffffffffffffffffffffffffffffffffff16815260200190815260200160002060006101000a81548160ff0219169083151502179055508173ffffffffffffffffffffffffffffffffffffffff168373ffffffffffffffffffffffffffffffffffffffff167f17307eab39ab6107e8899845ad3d59bd9653f200f220920489ca2b5937696c3183604051611f449190612c8a565b60405180910390a3505050565b611f5c848484611a3b565b611f688484848461242c565b611fa7576040517f08c379a0000000000000000000000000000000000000000000000000000000008152600401611f9e90613f62565b60405180910390fd5b50505050565b60008073ffffffffffffffffffffffffffffffffffffffff166002600084815260200190815260200160002060009054906101000a900473ffffffffffffffffffffffffffffffffffffffff1673ffffffffffffffffffffffffffffffffffffffff1614159050919050565b6060600f8054612028906132b2565b80601f0160208091040260200160405190810160405280929190818152602001828054612054906132b2565b80156120a15780601f10612076576101008083540402835291602001916120a1565b820191906000526020600020905b81548152906001019060200180831161208457829003601f168201915b5050505050905090565b6060600082036120f2576040518060400160405280600181526020017f30000000000000000000000000000000000000000000000000000000000000008152509050612206565b600082905060005b6000821461212457808061210d90613f82565b915050600a8261211d9190613ff9565b91506120fa565b60008167ffffffffffffffff8111156121405761213f612f3f565b5b6040519080825280601f01601f1916602001820160405280156121725781602001600182028036833780820191505090505b5090505b600085146121ff5760018261218b9190613de4565b9150600a8561219a919061402a565b60306121a691906139a8565b60f81b8183815181106121bc576121bb6135bd565b5b60200101907effffffffffffffffffffffffffffffffffffffffffffffffffffffffffffff1916908160001a905350600a856121f89190613ff9565b9450612176565b8093505050505b919050565b60005b818110156122a7576000612220610b8c565b9050611a0a61222d610b8c565b101561229357601360003373ffffffffffffffffffffffffffffffffffffffff1673ffffffffffffffffffffffffffffffffffffffff168152602001908152602001600020600081548092919061228390613f82565b919050555061229233826125b3565b5b50808061229f90613f82565b91505061220e565b5050565b60007f01ffc9a7000000000000000000000000000000000000000000000000000000007bffffffffffffffffffffffffffffffffffffffffffffffffffffffff1916827bffffffffffffffffffffffffffffffffffffffffffffffffffffffff1916149050919050565b6123208383836125d1565b600073ffffffffffffffffffffffffffffffffffffffff168373ffffffffffffffffffffffffffffffffffffffff16036123625761235d816125d6565b6123a1565b8173ffffffffffffffffffffffffffffffffffffffff168373ffffffffffffffffffffffffffffffffffffffff16146123a05761239f838261261f565b5b5b600073ffffffffffffffffffffffffffffffffffffffff168273ffffffffffffffffffffffffffffffffffffffff16036123e3576123de8161278c565b612422565b8273ffffffffffffffffffffffffffffffffffffffff168273ffffffffffffffffffffffffffffffffffffffff161461242157612420828261285d565b5b5b505050565b505050565b600061244d8473ffffffffffffffffffffffffffffffffffffffff166128dc565b156125a6578373ffffffffffffffffffffffffffffffffffffffff1663150b7a026124766118e5565b8786866040518563ffffffff1660e01b815260040161249894939291906140b0565b6020604051808303816000875af19250505080156124d457506040513d601f19601f820116820180604052508101906124d19190614111565b60015b612556573d8060008114612504576040519150601f19603f3d011682016040523d82523d6000602084013e612509565b606091505b50600081510361254e576040517f08c379a000000000000000000000000000000000000000000000000000000000815260040161254590613f62565b60405180910390fd5b805181602001fd5b63150b7a0260e01b7bffffffffffffffffffffffffffffffffffffffffffffffffffffffff1916817bffffffffffffffffffffffffffffffffffffffffffffffffffffffff1916149150506125ab565b600190505b949350505050565b6125cd8282604051806020016040528060008152506128ff565b5050565b505050565b6008805490506009600083815260200190815260200160002081905550600881908060018154018082558091505060019003906000526020600020016000909190919091505550565b6000600161262c84610f4c565b6126369190613de4565b905060006007600084815260200190815260200160002054905081811461271b576000600660008673ffffffffffffffffffffffffffffffffffffffff1673ffffffffffffffffffffffffffffffffffffffff168152602001908152602001600020600084815260200190815260200160002054905080600660008773ffffffffffffffffffffffffffffffffffffffff1673ffffffffffffffffffffffffffffffffffffffff168152602001908152602001600020600084815260200190815260200160002081905550816007600083815260200190815260200160002081905550505b6007600084815260200190815260200160002060009055600660008573ffffffffffffffffffffffffffffffffffffffff1673ffffffffffffffffffffffffffffffffffffffff16815260200190815260200160002060008381526020019081526020016000206000905550505050565b600060016008805490506127a09190613de4565b90506000600960008481526020019081526020016000205490506000600883815481106127d0576127cf6135bd565b5b9060005260206000200154905080600883815481106127f2576127f16135bd565b5b9060005260206000200181905550816009600083815260200190815260200160002081905550600960008581526020019081526020016000206000905560088054806128415761284061413e565b5b6001900381819060005260206000200160009055905550505050565b600061286883610f4c565b905081600660008573ffffffffffffffffffffffffffffffffffffffff1673ffffffffffffffffffffffffffffffffffffffff168152602001908152602001600020600083815260200190815260200160002081905550806007600084815260200190815260200160002081905550505050565b6000808273ffffffffffffffffffffffffffffffffffffffff163b119050919050565b612909838361295a565b612916600084848461242c565b612955576040517f08c379a000000000000000000000000000000000000000000000000000000000815260040161294c90613f62565b60405180910390fd5b505050565b600073ffffffffffffffffffffffffffffffffffffffff168273ffffffffffffffffffffffffffffffffffffffff16036129c9576040517f08c379a00000000000000000000000000000000000000000000000000000000081526004016129c0906141b9565b60405180910390fd5b6129d281611fad565b15612a12576040517f08c379a0000000000000000000000000000000000000000000000000000000008152600401612a0990614225565b60405180910390fd5b612a1e60008383612315565b6001600360008473ffffffffffffffffffffffffffffffffffffffff1673ffffffffffffffffffffffffffffffffffffffff1681526020019081526020016000206000828254612a6e91906139a8565b92505081905550816002600083815260200190815260200160002060006101000a81548173ffffffffffffffffffffffffffffffffffffffff021916908373ffffffffffffffffffffffffffffffffffffffff160217905550808273ffffffffffffffffffffffffffffffffffffffff16600073ffffffffffffffffffffffffffffffffffffffff167fddf252ad1be2c89b69c2b068fc378daa952ba7f163c4a11628f55a4df523b3ef60405160405180910390a4612b2f60008383612427565b5050565b828054612b3f906132b2565b90600052602060002090601f016020900481019282612b615760008555612ba8565b82601f10612b7a57805160ff1916838001178555612ba8565b82800160010185558215612ba8579182015b82811115612ba7578251825591602001919060010190612b8c565b5b509050612bb59190612bb9565b5090565b5b80821115612bd2576000816000905550600101612bba565b5090565b6000604051905090565b600080fd5b600080fd5b60007fffffffff0000000000000000000000000000000000000000000000000000000082169050919050565b612c1f81612bea565b8114612c2a57600080fd5b50565b600081359050612c3c81612c16565b92915050565b600060208284031215612c5857612c57612be0565b5b6000612c6684828501612c2d565b91505092915050565b60008115159050919050565b612c8481612c6f565b82525050565b6000602082019050612c9f6000830184612c7b565b92915050565b600081519050919050565b600082825260208201905092915050565b60005b83811015612cdf578082015181840152602081019050612cc4565b83811115612cee576000848401525b50505050565b6000601f19601f8301169050919050565b6000612d1082612ca5565b612d1a8185612cb0565b9350612d2a818560208601612cc1565b612d3381612cf4565b840191505092915050565b60006020820190508181036000830152612d588184612d05565b905092915050565b6000819050919050565b612d7381612d60565b8114612d7e57600080fd5b50565b600081359050612d9081612d6a565b92915050565b600060208284031215612dac57612dab612be0565b5b6000612dba84828501612d81565b91505092915050565b600073ffffffffffffffffffffffffffffffffffffffff82169050919050565b6000612dee82612dc3565b9050919050565b612dfe81612de3565b82525050565b6000602082019050612e196000830184612df5565b92915050565b612e2881612de3565b8114612e3357600080fd5b50565b600081359050612e4581612e1f565b92915050565b60008060408385031215612e6257612e61612be0565b5b6000612e7085828601612e36565b9250506020612e8185828601612d81565b9150509250929050565b612e9481612d60565b82525050565b6000602082019050612eaf6000830184612e8b565b92915050565b600080600060608486031215612ece57612ecd612be0565b5b6000612edc86828701612e36565b9350506020612eed86828701612e36565b9250506040612efe86828701612d81565b9150509250925092565b600060208284031215612f1e57612f1d612be0565b5b6000612f2c84828501612e36565b91505092915050565b600080fd5b600080fd5b7f4e487b7100000000000000000000000000000000000000000000000000000000600052604160045260246000fd5b612f7782612cf4565b810181811067ffffffffffffffff82111715612f9657612f95612f3f565b5b80604052505050565b6000612fa9612bd6565b9050612fb58282612f6e565b919050565b600067ffffffffffffffff821115612fd557612fd4612f3f565b5b612fde82612cf4565b9050602081019050919050565b82818337600083830152505050565b600061300d61300884612fba565b612f9f565b90508281526020810184848401111561302957613028612f3a565b5b613034848285612feb565b509392505050565b600082601f83011261305157613050612f35565b5b8135613061848260208601612ffa565b91505092915050565b6000602082840312156130805761307f612be0565b5b600082013567ffffffffffffffff81111561309e5761309d612be5565b5b6130aa8482850161303c565b91505092915050565b6130bc81612c6f565b81146130c757600080fd5b50565b6000813590506130d9816130b3565b92915050565b600080604083850312156130f6576130f5612be0565b5b600061310485828601612e36565b9250506020613115858286016130ca565b9150509250929050565b600067ffffffffffffffff82111561313a57613139612f3f565b5b61314382612cf4565b9050602081019050919050565b600061316361315e8461311f565b612f9f565b90508281526020810184848401111561317f5761317e612f3a565b5b61318a848285612feb565b509392505050565b600082601f8301126131a7576131a6612f35565b5b81356131b7848260208601613150565b91505092915050565b600080600080608085870312156131da576131d9612be0565b5b60006131e887828801612e36565b94505060206131f987828801612e36565b935050604061320a87828801612d81565b925050606085013567ffffffffffffffff81111561322b5761322a612be5565b5b61323787828801613192565b91505092959194509250565b6000806040838503121561325a57613259612be0565b5b600061326885828601612e36565b925050602061327985828601612e36565b9150509250929050565b7f4e487b7100000000000000000000000000000000000000000000000000000000600052602260045260246000fd5b600060028204905060018216806132ca57607f821691505b6020821081036132dd576132dc613283565b5b50919050565b7f4552433732313a20617070726f76616c20746f2063757272656e74206f776e6560008201527f7200000000000000000000000000000000000000000000000000000000000000602082015250565b600061333f602183612cb0565b915061334a826132e3565b604082019050919050565b6000602082019050818103600083015261336e81613332565b9050919050565b7f4552433732313a20617070726f76652063616c6c6572206973206e6f7420746f60008201527f6b656e206f776e6572206e6f7220617070726f76656420666f7220616c6c0000602082015250565b60006133d1603e83612cb0565b91506133dc82613375565b604082019050919050565b60006020820190508181036000830152613400816133c4565b9050919050565b7f4552433732313a2063616c6c6572206973206e6f7420746f6b656e206f776e6560008201527f72206e6f7220617070726f766564000000000000000000000000000000000000602082015250565b6000613463602e83612cb0565b915061346e82613407565b604082019050919050565b6000602082019050818103600083015261349281613456565b9050919050565b7f455243373231456e756d657261626c653a206f776e657220696e646578206f7560008201527f74206f6620626f756e6473000000000000000000000000000000000000000000602082015250565b60006134f5602b83612cb0565b915061350082613499565b604082019050919050565b60006020820190508181036000830152613524816134e8565b9050919050565b7f455243373231456e756d657261626c653a20676c6f62616c20696e646578206f60008201527f7574206f6620626f756e64730000000000000000000000000000000000000000602082015250565b6000613587602c83612cb0565b91506135928261352b565b604082019050919050565b600060208201905081810360008301526135b68161357a565b9050919050565b7f4e487b7100000000000000000000000000000000000000000000000000000000600052603260045260246000fd5b7f5265656e7472616e637947756172643a207265656e7472616e742063616c6c00600082015250565b6000613622601f83612cb0565b915061362d826135ec565b602082019050919050565b6000602082019050818103600083015261365181613615565b9050919050565b7f4552433732313a20696e76616c696420746f6b656e2049440000000000000000600082015250565b600061368e601883612cb0565b915061369982613658565b602082019050919050565b600060208201905081810360008301526136bd81613681565b9050919050565b7f4552433732313a2061646472657373207a65726f206973206e6f74206120766160008201527f6c6964206f776e65720000000000000000000000000000000000000000000000602082015250565b6000613720602983612cb0565b915061372b826136c4565b604082019050919050565b6000602082019050818103600083015261374f81613713565b9050919050565b7f4552433732314d657461646174613a2055524920717565727920666f72206e6f60008201527f6e6578697374656e7420746f6b656e0000000000000000000000000000000000602082015250565b60006137b2602f83612cb0565b91506137bd82613756565b604082019050919050565b600060208201905081810360008301526137e1816137a5565b9050919050565b600081905092915050565b60006137fe82612ca5565b61380881856137e8565b9350613818818560208601612cc1565b80840191505092915050565b600061383082856137f3565b915061383c82846137f3565b91508190509392505050565b60008190508160005260206000209050919050565b6000815461386a816132b2565b61387481866137e8565b9450600182166000811461388f57600181146138a0576138d3565b60ff198316865281860193506138d3565b6138a985613848565b60005b838110156138cb578154818901526001820191506020810190506138ac565b838801955050505b50505092915050565b60006138e882866137f3565b91506138f482856137f3565b9150613900828461385d565b9150819050949350505050565b7f5468652063616c6c657220697320616e6f7468657220636f6e74726163740000600082015250565b6000613943601e83612cb0565b915061394e8261390d565b602082019050919050565b6000602082019050818103600083015261397281613936565b9050919050565b7f4e487b7100000000000000000000000000000000000000000000000000000000600052601160045260246000fd5b60006139b382612d60565b91506139be83612d60565b9250827fffffffffffffffffffffffffffffffffffffffffffffffffffffffffffffffff038211156139f3576139f2613979565b5b828201905092915050565b7f536f6c64204f7574210000000000000000000000000000000000000000000000600082015250565b6000613a34600983612cb0565b9150613a3f826139fe565b602082019050919050565b60006020820190508181036000830152613a6381613a27565b9050919050565b7f53616c65206d7573742062652061637469766520746f206d696e74204d63636d600082015250565b6000613aa0602083612cb0565b9150613aab82613a6a565b602082019050919050565b60006020820190508181036000830152613acf81613a93565b9050919050565b7f457863656564656420746865206d6178696d756d20707572636861736520717560008201527f616e746974790000000000000000000000000000000000000000000000000000602082015250565b6000613b32602683612cb0565b9150613b3d82613ad6565b604082019050919050565b60006020820190508181036000830152613b6181613b25565b9050919050565b6000613b7382612d60565b9150613b7e83612d60565b9250817fffffffffffffffffffffffffffffffffffffffffffffffffffffffffffffffff0483118215151615613bb757613bb6613979565b5b828202905092915050565b7f4e6f7420656e6f7567682065746865722073656e740000000000000000000000600082015250565b6000613bf8601583612cb0565b9150613c0382613bc2565b602082019050919050565b60006020820190508181036000830152613c2781613beb565b9050919050565b7f4f776e61626c653a206e6577206f776e657220697320746865207a65726f206160008201527f6464726573730000000000000000000000000000000000000000000000000000602082015250565b6000613c8a602683612cb0565b9150613c9582613c2e565b604082019050919050565b60006020820190508181036000830152613cb981613c7d565b9050919050565b7f4552433732313a207472616e736665722066726f6d20696e636f72726563742060008201527f6f776e6572000000000000000000000000000000000000000000000000000000602082015250565b6000613d1c602583612cb0565b9150613d2782613cc0565b604082019050919050565b60006020820190508181036000830152613d4b81613d0f565b9050919050565b7f4552433732313a207472616e7366657220746f20746865207a65726f2061646460008201527f7265737300000000000000000000000000000000000000000000000000000000602082015250565b6000613dae602483612cb0565b9150613db982613d52565b604082019050919050565b60006020820190508181036000830152613ddd81613da1565b9050919050565b6000613def82612d60565b9150613dfa83612d60565b925082821015613e0d57613e0c613979565b5b828203905092915050565b7f4f776e61626c653a2063616c6c6572206973206e6f7420746865206f776e6572600082015250565b6000613e4e602083612cb0565b9150613e5982613e18565b602082019050919050565b60006020820190508181036000830152613e7d81613e41565b9050919050565b7f4552433732313a20617070726f766520746f2063616c6c657200000000000000600082015250565b6000613eba601983612cb0565b9150613ec582613e84565b602082019050919050565b60006020820190508181036000830152613ee981613ead565b9050919050565b7f4552433732313a207472616e7366657220746f206e6f6e20455243373231526560008201527f63656976657220696d706c656d656e7465720000000000000000000000000000602082015250565b6000613f4c603283612cb0565b9150613f5782613ef0565b604082019050919050565b60006020820190508181036000830152613f7b81613f3f565b9050919050565b6000613f8d82612d60565b91507fffffffffffffffffffffffffffffffffffffffffffffffffffffffffffffffff8203613fbf57613fbe613979565b5b600182019050919050565b7f4e487b7100000000000000000000000000000000000000000000000000000000600052601260045260246000fd5b600061400482612d60565b915061400f83612d60565b92508261401f5761401e613fca565b5b828204905092915050565b600061403582612d60565b915061404083612d60565b9250826140505761404f613fca565b5b828206905092915050565b600081519050919050565b600082825260208201905092915050565b60006140828261405b565b61408c8185614066565b935061409c818560208601612cc1565b6140a581612cf4565b840191505092915050565b60006080820190506140c56000830187612df5565b6140d26020830186612df5565b6140df6040830185612e8b565b81810360608301526140f18184614077565b905095945050505050565b60008151905061410b81612c16565b92915050565b60006020828403121561412757614126612be0565b5b6000614135848285016140fc565b91505092915050565b7f4e487b7100000000000000000000000000000000000000000000000000000000600052603160045260246000fd5b7f4552433732313a206d696e7420746f20746865207a65726f2061646472657373600082015250565b60006141a3602083612cb0565b91506141ae8261416d565b602082019050919050565b600060208201905081810360008301526141d281614196565b9050919050565b7f4552433732313a20746f6b656e20616c7265616479206d696e74656400000000600082015250565b600061420f601c83612cb0565b915061421a826141d9565b602082019050919050565b6000602082019050818103600083015261423e81614202565b905091905056fea2646970667358221220c8c57a8e3bffe7fe9a07271d393e3d4260a6f14558b7c52d4159ff9befbe50df64736f6c634300080d0033",
    "linkReferences": {},
    "deployedLinkReferences": {}
}